{
    "contractName": "BEP721A",
    "abi": [
        {
            "inputs": [
                {
                    "internalType": "string",
                    "name": "name_",
                    "type": "string"
                },
                {
                    "internalType": "string",
                    "name": "symbol_",
                    "type": "string"
                }
            ],
            "stateMutability": "nonpayable",
            "type": "constructor"
        },
        {
            "anonymous": false,
            "inputs": [
                {
                    "indexed": true,
                    "internalType": "address",
                    "name": "owner",
                    "type": "address"
                },
                {
                    "indexed": true,
                    "internalType": "address",
                    "name": "approved",
                    "type": "address"
                },
                {
                    "indexed": true,
                    "internalType": "uint256",
                    "name": "tokenId",
                    "type": "uint256"
                }
            ],
            "name": "Approval",
            "type": "event"
        },
        {
            "anonymous": false,
            "inputs": [
                {
                    "indexed": true,
                    "internalType": "address",
                    "name": "owner",
                    "type": "address"
                },
                {
                    "indexed": true,
                    "internalType": "address",
                    "name": "operator",
                    "type": "address"
                },
                {
                    "indexed": false,
                    "internalType": "bool",
                    "name": "approved",
                    "type": "bool"
                }
            ],
            "name": "ApprovalForAll",
            "type": "event"
        },
        {
            "anonymous": false,
            "inputs": [
                {
                    "indexed": false,
                    "internalType": "address",
                    "name": "account",
                    "type": "address"
                }
            ],
            "name": "Paused",
            "type": "event"
        },
        {
            "anonymous": false,
            "inputs": [
                {
                    "indexed": true,
                    "internalType": "address",
                    "name": "from",
                    "type": "address"
                },
                {
                    "indexed": true,
                    "internalType": "address",
                    "name": "to",
                    "type": "address"
                },
                {
                    "indexed": true,
                    "internalType": "uint256",
                    "name": "tokenId",
                    "type": "uint256"
                }
            ],
            "name": "Transfer",
            "type": "event"
        },
        {
            "anonymous": false,
            "inputs": [
                {
                    "indexed": false,
                    "internalType": "address",
                    "name": "account",
                    "type": "address"
                }
            ],
            "name": "Unpaused",
            "type": "event"
        },
        {
            "inputs": [],
            "name": "_currentIndex",
            "outputs": [
                {
                    "internalType": "uint256",
                    "name": "",
                    "type": "uint256"
                }
            ],
            "stateMutability": "view",
            "type": "function"
        },
        {
            "inputs": [],
            "name": "admin",
            "outputs": [
                {
                    "internalType": "address",
                    "name": "",
                    "type": "address"
                }
            ],
            "stateMutability": "view",
            "type": "function"
        },
        {
            "inputs": [
                {
                    "internalType": "address",
                    "name": "to",
                    "type": "address"
                },
                {
                    "internalType": "uint256",
                    "name": "tokenId",
                    "type": "uint256"
                }
            ],
            "name": "approve",
            "outputs": [],
            "stateMutability": "nonpayable",
            "type": "function"
        },
        {
            "inputs": [
                {
                    "internalType": "address",
                    "name": "owner",
                    "type": "address"
                }
            ],
            "name": "balanceOf",
            "outputs": [
                {
                    "internalType": "uint256",
                    "name": "",
                    "type": "uint256"
                }
            ],
            "stateMutability": "view",
            "type": "function"
        },
        {
            "inputs": [],
            "name": "burner",
            "outputs": [
                {
                    "internalType": "address",
                    "name": "",
                    "type": "address"
                }
            ],
            "stateMutability": "view",
            "type": "function"
        },
        {
            "inputs": [],
            "name": "ceo",
            "outputs": [
                {
                    "internalType": "address",
                    "name": "",
                    "type": "address"
                }
            ],
            "stateMutability": "view",
            "type": "function"
        },
        {
            "inputs": [
                {
                    "internalType": "uint256",
                    "name": "tokenId",
                    "type": "uint256"
                }
            ],
            "name": "getApproved",
            "outputs": [
                {
                    "internalType": "address",
                    "name": "",
                    "type": "address"
                }
            ],
            "stateMutability": "view",
            "type": "function"
        },
        {
            "inputs": [
                {
                    "internalType": "address",
                    "name": "owner",
                    "type": "address"
                },
                {
                    "internalType": "address",
                    "name": "operator",
                    "type": "address"
                }
            ],
            "name": "isApprovedForAll",
            "outputs": [
                {
                    "internalType": "bool",
                    "name": "",
                    "type": "bool"
                }
            ],
            "stateMutability": "view",
            "type": "function"
        },
        {
            "inputs": [],
            "name": "manager",
            "outputs": [
                {
                    "internalType": "address",
                    "name": "",
                    "type": "address"
                }
            ],
            "stateMutability": "view",
            "type": "function"
        },
        {
            "inputs": [],
            "name": "minter",
            "outputs": [
                {
                    "internalType": "address",
                    "name": "",
                    "type": "address"
                }
            ],
            "stateMutability": "view",
            "type": "function"
        },
        {
            "inputs": [],
            "name": "name",
            "outputs": [
                {
                    "internalType": "string",
                    "name": "",
                    "type": "string"
                }
            ],
            "stateMutability": "view",
            "type": "function"
        },
        {
            "inputs": [
                {
                    "internalType": "address",
                    "name": "_newAdmin",
                    "type": "address"
                }
            ],
            "name": "newAdmin",
            "outputs": [],
            "stateMutability": "nonpayable",
            "type": "function"
        },
        {
            "inputs": [
                {
                    "internalType": "address",
                    "name": "_newBurner",
                    "type": "address"
                }
            ],
            "name": "newBurner",
            "outputs": [],
            "stateMutability": "nonpayable",
            "type": "function"
        },
        {
            "inputs": [
                {
                    "internalType": "address",
                    "name": "_newCEO",
                    "type": "address"
                }
            ],
            "name": "newCEO",
            "outputs": [],
            "stateMutability": "nonpayable",
            "type": "function"
        },
        {
            "inputs": [
                {
                    "internalType": "address",
                    "name": "_newManager",
                    "type": "address"
                }
            ],
            "name": "newManager",
            "outputs": [],
            "stateMutability": "nonpayable",
            "type": "function"
        },
        {
            "inputs": [
                {
                    "internalType": "address",
                    "name": "_newMinter",
                    "type": "address"
                }
            ],
            "name": "newMinter",
            "outputs": [],
            "stateMutability": "nonpayable",
            "type": "function"
        },
        {
            "inputs": [
                {
                    "internalType": "uint256",
                    "name": "tokenId",
                    "type": "uint256"
                }
            ],
            "name": "ownerOf",
            "outputs": [
                {
                    "internalType": "address",
                    "name": "",
                    "type": "address"
                }
            ],
            "stateMutability": "view",
            "type": "function"
        },
        {
            "inputs": [],
            "name": "pause",
            "outputs": [],
            "stateMutability": "nonpayable",
            "type": "function"
        },
        {
            "inputs": [],
            "name": "paused",
            "outputs": [
                {
                    "internalType": "bool",
                    "name": "",
                    "type": "bool"
                }
            ],
            "stateMutability": "view",
            "type": "function"
        },
        {
            "inputs": [
                {
                    "internalType": "address",
                    "name": "from",
                    "type": "address"
                },
                {
                    "internalType": "address",
                    "name": "to",
                    "type": "address"
                },
                {
                    "internalType": "uint256",
                    "name": "tokenId",
                    "type": "uint256"
                }
            ],
            "name": "safeTransferFrom",
            "outputs": [],
            "stateMutability": "nonpayable",
            "type": "function"
        },
        {
            "inputs": [
                {
                    "internalType": "address",
                    "name": "from",
                    "type": "address"
                },
                {
                    "internalType": "address",
                    "name": "to",
                    "type": "address"
                },
                {
                    "internalType": "uint256",
                    "name": "tokenId",
                    "type": "uint256"
                },
                {
                    "internalType": "bytes",
                    "name": "_data",
                    "type": "bytes"
                }
            ],
            "name": "safeTransferFrom",
            "outputs": [],
            "stateMutability": "nonpayable",
            "type": "function"
        },
        {
            "inputs": [
                {
                    "internalType": "address",
                    "name": "operator",
                    "type": "address"
                },
                {
                    "internalType": "bool",
                    "name": "approved",
                    "type": "bool"
                }
            ],
            "name": "setApprovalForAll",
            "outputs": [],
            "stateMutability": "nonpayable",
            "type": "function"
        },
        {
            "inputs": [
                {
                    "internalType": "bytes4",
                    "name": "interfaceId",
                    "type": "bytes4"
                }
            ],
            "name": "supportsInterface",
            "outputs": [
                {
                    "internalType": "bool",
                    "name": "",
                    "type": "bool"
                }
            ],
            "stateMutability": "view",
            "type": "function"
        },
        {
            "inputs": [],
            "name": "symbol",
            "outputs": [
                {
                    "internalType": "string",
                    "name": "",
                    "type": "string"
                }
            ],
            "stateMutability": "view",
            "type": "function"
        },
        {
            "inputs": [
                {
                    "internalType": "uint256",
                    "name": "tokenId",
                    "type": "uint256"
                }
            ],
            "name": "tokenURI",
            "outputs": [
                {
                    "internalType": "string",
                    "name": "",
                    "type": "string"
                }
            ],
            "stateMutability": "view",
            "type": "function"
        },
        {
            "inputs": [],
            "name": "totalSupply",
            "outputs": [
                {
                    "internalType": "uint256",
                    "name": "",
                    "type": "uint256"
                }
            ],
            "stateMutability": "view",
            "type": "function"
        },
        {
            "inputs": [
                {
                    "internalType": "address",
                    "name": "from",
                    "type": "address"
                },
                {
                    "internalType": "address",
                    "name": "to",
                    "type": "address"
                },
                {
                    "internalType": "uint256",
                    "name": "tokenId",
                    "type": "uint256"
                }
            ],
            "name": "transferFrom",
            "outputs": [],
            "stateMutability": "nonpayable",
            "type": "function"
        },
        {
            "inputs": [],
            "name": "unpause",
            "outputs": [],
            "stateMutability": "nonpayable",
            "type": "function"
        }
    ],
    "bytecode": "60806040523480156200001157600080fd5b5060405162001b7838038062001b78833981016040819052620000349162000228565b60008054336001600160a01b0319918216811790925560018054821683179055600280548216831790556003805490911682179055600480546001600160a81b0319169091179055815162000091906007906020850190620000b5565b508051620000a7906008906020840190620000b5565b5050600160055550620002ce565b828054620000c39062000292565b90600052602060002090601f016020900481019282620000e7576000855562000132565b82601f106200010257805160ff191683800117855562000132565b8280016001018555821562000132579182015b828111156200013257825182559160200191906001019062000115565b506200014092915062000144565b5090565b5b8082111562000140576000815560010162000145565b634e487b7160e01b600052604160045260246000fd5b600082601f8301126200018357600080fd5b81516001600160401b0380821115620001a057620001a06200015b565b604051601f8301601f19908116603f01168101908282118183101715620001cb57620001cb6200015b565b81604052838152602092508683858801011115620001e857600080fd5b600091505b838210156200020c5785820183015181830184015290820190620001ed565b838211156200021e5760008385830101525b9695505050505050565b600080604083850312156200023c57600080fd5b82516001600160401b03808211156200025457600080fd5b620002628683870162000171565b935060208501519150808211156200027957600080fd5b50620002888582860162000171565b9150509250929050565b600181811c90821680620002a757607f821691505b602082108103620002c857634e487b7160e01b600052602260045260246000fd5b50919050565b61189a80620002de6000396000f3fe608060405234801561001057600080fd5b50600436106101c45760003560e01c806370a08231116100f9578063a6ba31c111610097578063c87b56dd11610071578063c87b56dd1461039d578063e985e9c5146103b0578063f840f72b146103ec578063f851a440146103ff57600080fd5b8063a6ba31c114610364578063a9917dbe14610377578063b88d4fde1461038a57600080fd5b8063908921fc116100d3578063908921fc1461032d5780639451c99a1461034057806395d89b4114610349578063a22cb4651461035157600080fd5b806370a08231146102ff5780638456cb5914610312578063906e94001461031a57600080fd5b806327810b6e11610166578063481c6a7511610140578063481c6a75146102b457806357341912146102c75780635c975abb146102da5780636352211e146102ec57600080fd5b806327810b6e146102865780633f4ba83a1461029957806342842e0e146102a157600080fd5b8063081812fc116101a2578063081812fc14610231578063095ea7b31461024457806318160ddd1461025957806323b872dd1461027357600080fd5b806301ffc9a7146101c957806306fdde03146101f15780630754617214610206575b600080fd5b6101dc6101d736600461137a565b610412565b60405190151581526020015b60405180910390f35b6101f9610464565b6040516101e891906113ef565b600154610219906001600160a01b031681565b6040516001600160a01b0390911681526020016101e8565b61021961023f366004611402565b6104f6565b610257610252366004611437565b61057a565b005b60065460055403600019015b6040519081526020016101e8565b610257610281366004611461565b610674565b600254610219906001600160a01b031681565b61025761067f565b6102576102af366004611461565b61074f565b600454610219906001600160a01b031681565b6102576102d536600461149d565b61076a565b600454600160a01b900460ff166101dc565b6102196102fa366004611402565b6107f0565b61026561030d36600461149d565b610802565b610257610880565b61025761032836600461149d565b61093b565b600354610219906001600160a01b031681565b61026560055481565b6101f96109c1565b61025761035f3660046114b8565b6109d0565b61025761037236600461149d565b610a88565b61025761038536600461149d565b610af0565b61025761039836600461150a565b610b58565b6101f96103ab366004611402565b610ba8565b6101dc6103be3660046115e6565b6001600160a01b039182166000908152600c6020908152604080832093909416825291909152205460ff1690565b6102576103fa36600461149d565b610c68565b600054610219906001600160a01b031681565b60006001600160e01b031982166380ac58cd60e01b148061044357506001600160e01b03198216635b5e139f60e01b145b8061045e57506301ffc9a760e01b6001600160e01b03198316145b92915050565b60606007805461047390611619565b80601f016020809104026020016040519081016040528092919081815260200182805461049f90611619565b80156104ec5780601f106104c1576101008083540402835291602001916104ec565b820191906000526020600020905b8154815290600101906020018083116104cf57829003601f168201915b5050505050905090565b600061050182610cee565b61055e5760405162461bcd60e51b8152602060048201526024808201527f417070726f76616c20717565727920666f72206e6f6e6578697374616e74207460448201526337b5b2b760e11b60648201526084015b60405180910390fd5b506000908152600b60205260409020546001600160a01b031690565b6000610585826107f0565b9050806001600160a01b0316836001600160a01b0316036105e85760405162461bcd60e51b815260206004820152601960248201527f417070726f76616c20746f2043757272656e74206f776e6572000000000000006044820152606401610555565b336001600160a01b03821614801590610608575061060681336103be565b155b156106645760405162461bcd60e51b815260206004820152602660248201527f417070726f76616c2063616c6c6572206e6f74206f776e6572206e6f722061706044820152651c1c9bdd995960d21b6064820152608401610555565b61066f838383610d27565b505050565b61066f838383610d83565b600454600160a01b900460ff166106cf5760405162461bcd60e51b815260206004820152601460248201527314185d5cd8589b194e881b9bdd081c185d5cd95960621b6044820152606401610555565b6000546001600160a01b0316336001600160a01b0316146107025760405162461bcd60e51b815260040161055590611653565b6004805460ff60a01b191690557f5db9ee0a495bf2e6ff9c91a7834c1ba4fdd244a5e8aa4e537bd38aeae4b073aa335b6040516001600160a01b03909116815260200160405180910390a1565b61066f83838360405180602001604052806000815250610b58565b6000546001600160a01b0316336001600160a01b0316148061079f57506003546001600160a01b0316336001600160a01b0316145b6107bb5760405162461bcd60e51b815260040161055590611695565b6001600160a01b0381166107ce57600080fd5b600180546001600160a01b0319166001600160a01b0392909216919091179055565b60006107fb82611013565b5192915050565b60006001600160a01b03821661085a5760405162461bcd60e51b815260206004820152601e60248201527f42616c616e636520517565727920666f72207a65726f206164647265737300006044820152606401610555565b506001600160a01b03166000908152600a602052604090205467ffffffffffffffff1690565b600454600160a01b900460ff16156108cd5760405162461bcd60e51b815260206004820152601060248201526f14185d5cd8589b194e881c185d5cd95960821b6044820152606401610555565b6000546001600160a01b0316336001600160a01b0316146109005760405162461bcd60e51b815260040161055590611653565b6004805460ff60a01b1916600160a01b1790557f62e78cea01bee320cd4e420270b5ea74000d11b0c9f74754ebdbfc544b05a2586107323390565b6000546001600160a01b0316336001600160a01b0316148061097057506003546001600160a01b0316336001600160a01b0316145b61098c5760405162461bcd60e51b815260040161055590611695565b6001600160a01b03811661099f57600080fd5b600480546001600160a01b0319166001600160a01b0392909216919091179055565b60606008805461047390611619565b336001600160a01b03831603610a1c5760405162461bcd60e51b815260206004820152601160248201527020b8383937bb32903a379031b0b63632b960791b6044820152606401610555565b336000818152600c602090815260408083206001600160a01b03871680855290835292819020805460ff191686151590811790915590519081529192917f17307eab39ab6107e8899845ad3d59bd9653f200f220920489ca2b5937696c31910160405180910390a35050565b6000546001600160a01b0316336001600160a01b031614610abb5760405162461bcd60e51b815260040161055590611653565b6001600160a01b038116610ace57600080fd5b600080546001600160a01b0319166001600160a01b0392909216919091179055565b6000546001600160a01b0316336001600160a01b031614610b235760405162461bcd60e51b815260040161055590611653565b6001600160a01b038116610b3657600080fd5b600380546001600160a01b0319166001600160a01b0392909216919091179055565b610b63848484610d83565b6001600160a01b0383163b15158015610b855750610b8384848484611175565b155b15610ba25760405162461bcd60e51b8152600401610555906116de565b50505050565b6060610bb382610cee565b610bff5760405162461bcd60e51b815260206004820152601f60248201527f55524920517565727920666f72206e6f6e6578697374616e7420746f6b656e006044820152606401610555565b6000610c1660408051602081019091526000815290565b90508051600003610c365760405180602001604052806000815250610c61565b80610c4084611260565b604051602001610c51929190611729565b6040516020818303038152906040525b9392505050565b6000546001600160a01b0316336001600160a01b03161480610c9d57506003546001600160a01b0316336001600160a01b0316145b610cb95760405162461bcd60e51b815260040161055590611695565b6001600160a01b038116610ccc57600080fd5b600280546001600160a01b0319166001600160a01b0392909216919091179055565b600081600111158015610d02575060055482105b801561045e575050600090815260096020526040902054600160e01b900460ff161590565b6000828152600b602052604080822080546001600160a01b0319166001600160a01b0387811691821790925591518593918516917f8c5be1e5ebec7d5bd14f71427d1e84f3dd0314c0f7b2291e5b200ac8c7c3b92591a4505050565b6000610d8e82611013565b9050836001600160a01b031681600001516001600160a01b031614610df55760405162461bcd60e51b815260206004820152601d60248201527f5472616e736665722066726f6d20696e636f7272656374206f776e65720000006044820152606401610555565b6000336001600160a01b0386161480610e135750610e1385336103be565b80610e2e575033610e23846104f6565b6001600160a01b0316145b905080610e905760405162461bcd60e51b815260206004820152602a60248201527f5472616e736665722063616c6c6572206e656974686572206f776e6572206e6f6044820152691c88185c1c1c9bdd995960b21b6064820152608401610555565b6001600160a01b038416610ee65760405162461bcd60e51b815260206004820152601860248201527f5472616e7366657220746f207a65726f206164647265737300000000000000006044820152606401610555565b610ef260008487610d27565b6001600160a01b038581166000908152600a60209081526040808320805467ffffffffffffffff1980821667ffffffffffffffff92831660001901831617909255898616808652838620805493841693831660019081018416949094179055898652600990945282852080546001600160e01b031916909417600160a01b42909216919091021783558701808452922080549193909116610fc8576005548214610fc8578054602086015167ffffffffffffffff16600160a01b026001600160e01b03199091166001600160a01b038a16171781555b50505082846001600160a01b0316866001600160a01b03167fddf252ad1be2c89b69c2b068fc378daa952ba7f163c4a11628f55a4df523b3ef60405160405180910390a45050505050565b60408051606081018252600080825260208201819052918101919091528180600111158015611043575060055481105b1561112357600081815260096020908152604091829020825160608101845290546001600160a01b0381168252600160a01b810467ffffffffffffffff1692820192909252600160e01b90910460ff161515918101829052906111215780516001600160a01b0316156110b7579392505050565b5060001901600081815260096020908152604091829020825160608101845290546001600160a01b038116808352600160a01b820467ffffffffffffffff1693830193909352600160e01b900460ff161515928101929092521561111c579392505050565b6110b7565b505b60405162461bcd60e51b815260206004820152602160248201527f4f776e657220517565727920666f72206e6f6e6578697374616e7420746f6b656044820152603760f91b6064820152608401610555565b60405163083305f960e31b81526000906001600160a01b038516906341982fc8906111aa903390899088908890600401611758565b6020604051808303816000875af19250505080156111e5575060408051601f3d908101601f191682019092526111e291810190611795565b60015b611242573d808015611213576040519150601f19603f3d011682016040523d82523d6000602084013e611218565b606091505b50805160000361123a5760405162461bcd60e51b8152600401610555906116de565b805181602001fd5b6001600160e01b03191663083305f960e31b1490505b949350505050565b6060816000036112875750506040805180820190915260018152600360fc1b602082015290565b8160005b81156112b1578061129b816117c8565b91506112aa9050600a836117f7565b915061128b565b60008167ffffffffffffffff8111156112cc576112cc6114f4565b6040519080825280601f01601f1916602001820160405280156112f6576020820181803683370190505b5090505b84156112585761130b60018361180b565b9150611318600a86611822565b611323906030611836565b60f81b8183815181106113385761133861184e565b60200101906001600160f81b031916908160001a90535061135a600a866117f7565b94506112fa565b6001600160e01b03198116811461137757600080fd5b50565b60006020828403121561138c57600080fd5b8135610c6181611361565b60005b838110156113b257818101518382015260200161139a565b83811115610ba25750506000910152565b600081518084526113db816020860160208601611397565b601f01601f19169290920160200192915050565b602081526000610c6160208301846113c3565b60006020828403121561141457600080fd5b5035919050565b80356001600160a01b038116811461143257600080fd5b919050565b6000806040838503121561144a57600080fd5b6114538361141b565b946020939093013593505050565b60008060006060848603121561147657600080fd5b61147f8461141b565b925061148d6020850161141b565b9150604084013590509250925092565b6000602082840312156114af57600080fd5b610c618261141b565b600080604083850312156114cb57600080fd5b6114d48361141b565b9150602083013580151581146114e957600080fd5b809150509250929050565b634e487b7160e01b600052604160045260246000fd5b6000806000806080858703121561152057600080fd5b6115298561141b565b93506115376020860161141b565b925060408501359150606085013567ffffffffffffffff8082111561155b57600080fd5b818701915087601f83011261156f57600080fd5b813581811115611581576115816114f4565b604051601f8201601f19908116603f011681019083821181831017156115a9576115a96114f4565b816040528281528a60208487010111156115c257600080fd5b82602086016020830137600060208483010152809550505050505092959194509250565b600080604083850312156115f957600080fd5b6116028361141b565b91506116106020840161141b565b90509250929050565b600181811c9082168061162d57607f821691505b60208210810361164d57634e487b7160e01b600052602260045260246000fd5b50919050565b60208082526022908201527f416363657373436f6e74726f6c3a2043616c6c6572206973206e6f742061646d60408201526134b760f11b606082015260800190565b60208082526029908201527f416363657373436f6e74726f6c3a2043616c6c6572206973206e6f742061646d604082015268696e206f722043454f60b81b606082015260800190565b6020808252602b908201527f5472616e7366657220746f206e6f6e204245503732312052656365697665722060408201526a34b6b83632b6b2b73a32b960a91b606082015260800190565b6000835161173b818460208801611397565b83519083019061174f818360208801611397565b01949350505050565b6001600160a01b038581168252841660208201526040810183905260806060820181905260009061178b908301846113c3565b9695505050505050565b6000602082840312156117a757600080fd5b8151610c6181611361565b634e487b7160e01b600052601160045260246000fd5b6000600182016117da576117da6117b2565b5060010190565b634e487b7160e01b600052601260045260246000fd5b600082611806576118066117e1565b500490565b60008282101561181d5761181d6117b2565b500390565b600082611831576118316117e1565b500690565b60008219821115611849576118496117b2565b500190565b634e487b7160e01b600052603260045260246000fdfea2646970667358221220b4c745f1c76fdfc237ef086280dc5208c2f8fe2d7d7c0bdb5985f3d8dd01b97564736f6c634300080d0033",
    "sourcePath": "c:/Users/suwan/OneDrive/Desktop/School Stuff/CODE Uni/Not Boring Company/smart-contracts/contracts/BEP721A/BEP721A.sol",
    "compiler": {
        "name": "solc",
        "version": "0.8.13+commit.abaa5c0e"
    },
    "functionHashes": {
        "_currentIndex()": "9451c99a",
        "admin()": "f851a440",
        "approve(address,uint256)": "095ea7b3",
        "balanceOf(address)": "70a08231",
        "burner()": "27810b6e",
        "ceo()": "908921fc",
        "getApproved(uint256)": "081812fc",
        "isApprovedForAll(address,address)": "e985e9c5",
        "manager()": "481c6a75",
        "minter()": "07546172",
        "name()": "06fdde03",
        "newAdmin(address)": "a6ba31c1",
        "newBurner(address)": "f840f72b",
        "newCEO(address)": "a9917dbe",
        "newManager(address)": "906e9400",
        "newMinter(address)": "57341912",
        "ownerOf(uint256)": "6352211e",
        "pause()": "8456cb59",
        "paused()": "5c975abb",
        "safeTransferFrom(address,address,uint256)": "42842e0e",
        "safeTransferFrom(address,address,uint256,bytes)": "b88d4fde",
        "setApprovalForAll(address,bool)": "a22cb465",
        "supportsInterface(bytes4)": "01ffc9a7",
        "symbol()": "95d89b41",
        "tokenURI(uint256)": "c87b56dd",
        "totalSupply()": "18160ddd",
        "transferFrom(address,address,uint256)": "23b872dd",
        "unpause()": "3f4ba83a"
    },
    "gasEstimates": {
        "creation": {
            "codeDepositCost": "1259600",
            "executionCost": "infinite",
            "totalCost": "infinite"
        },
        "external": {
            "_currentIndex()": "2362",
            "admin()": "2447",
            "approve(address,uint256)": "infinite",
            "balanceOf(address)": "2641",
            "burner()": "2383",
            "ceo()": "2382",
            "getApproved(uint256)": "6948",
            "isApprovedForAll(address,address)": "infinite",
            "manager()": "2382",
            "minter()": "2428",
            "name()": "infinite",
            "newAdmin(address)": "26809",
            "newBurner(address)": "29015",
            "newCEO(address)": "26831",
            "newManager(address)": "29017",
            "newMinter(address)": "28994",
            "ownerOf(uint256)": "infinite",
            "pause()": "29841",
            "paused()": "2399",
            "safeTransferFrom(address,address,uint256)": "infinite",
            "safeTransferFrom(address,address,uint256,bytes)": "infinite",
            "setApprovalForAll(address,bool)": "26736",
            "supportsInterface(bytes4)": "557",
            "symbol()": "infinite",
            "tokenURI(uint256)": "infinite",
            "totalSupply()": "4486",
            "transferFrom(address,address,uint256)": "infinite",
            "unpause()": "29812"
        },
        "internal": {
            "_afterTokenTransfers(address,address,uint256,uint256)": "infinite",
            "_approve(address,uint256,address)": "26264",
            "_baseURI()": "infinite",
            "_beforeTokenTransfers(address,address,uint256,uint256)": "infinite",
            "_burn(uint256)": "infinite",
            "_burn(uint256,bool)": "infinite",
            "_checkContractOnBEP721Received(address,address,uint256,bytes memory)": "infinite",
            "_exists(uint256)": "4382",
            "_getAux(address)": "infinite",
            "_mint(address,uint256,bytes memory,bool)": "infinite",
            "_numberBurned(address)": "infinite",
            "_numberMinted(address)": "infinite",
            "_ownershipOf(uint256)": "infinite",
            "_safeMint(address,uint256)": "infinite",
            "_safeMint(address,uint256,bytes memory)": "infinite",
            "_setAux(address,uint64)": "infinite",
            "_startTokenId()": "infinite",
            "_totalMinted()": "infinite",
            "_transfer(address,address,uint256)": "infinite"
        }
    }
}